{
  "_format": "hh-sol-artifact-1",
  "contractName": "P2PSwap",
  "sourceName": "contracts/P2PSwap.sol",
  "abi": [
    {
      "anonymous": false,
      "inputs": [
        {
          "indexed": true,
          "internalType": "address",
          "name": "account",
          "type": "address"
        },
        {
          "indexed": false,
          "internalType": "uint256",
          "name": "amount",
          "type": "uint256"
        }
      ],
      "name": "Deposit",
      "type": "event"
    },
    {
      "anonymous": false,
      "inputs": [
        {
          "indexed": true,
          "internalType": "address",
          "name": "sender",
          "type": "address"
        },
        {
          "indexed": false,
          "internalType": "uint256",
          "name": "amountOut",
          "type": "uint256"
        }
      ],
      "name": "Swap",
      "type": "event"
    },
    {
      "anonymous": false,
      "inputs": [
        {
          "indexed": true,
          "internalType": "address",
          "name": "sender",
          "type": "address"
        },
        {
          "indexed": false,
          "internalType": "uint256",
          "name": "amountIn",
          "type": "uint256"
        },
        {
          "indexed": false,
          "internalType": "uint256",
          "name": "amountOut",
          "type": "uint256"
        }
      ],
      "name": "Test",
      "type": "event"
    },
    {
      "anonymous": false,
      "inputs": [
        {
          "indexed": true,
          "internalType": "address",
          "name": "account",
          "type": "address"
        },
        {
          "indexed": false,
          "internalType": "uint256",
          "name": "amount",
          "type": "uint256"
        }
      ],
      "name": "Withdraw",
      "type": "event"
    },
    {
      "inputs": [
        {
          "internalType": "address",
          "name": "",
          "type": "address"
        },
        {
          "internalType": "address",
          "name": "",
          "type": "address"
        }
      ],
      "name": "allowed",
      "outputs": [
        {
          "internalType": "uint256",
          "name": "",
          "type": "uint256"
        }
      ],
      "stateMutability": "view",
      "type": "function"
    },
    {
      "inputs": [
        {
          "internalType": "address",
          "name": "",
          "type": "address"
        }
      ],
      "name": "balances",
      "outputs": [
        {
          "internalType": "uint256",
          "name": "",
          "type": "uint256"
        }
      ],
      "stateMutability": "view",
      "type": "function"
    },
    {
      "inputs": [],
      "name": "contractBalance",
      "outputs": [
        {
          "internalType": "uint256",
          "name": "",
          "type": "uint256"
        }
      ],
      "stateMutability": "view",
      "type": "function"
    },
    {
      "inputs": [],
      "name": "deposit",
      "outputs": [],
      "stateMutability": "payable",
      "type": "function"
    },
    {
      "inputs": [
        {
          "internalType": "address",
          "name": "",
          "type": "address"
        }
      ],
      "name": "ethBalance",
      "outputs": [
        {
          "internalType": "uint256",
          "name": "",
          "type": "uint256"
        }
      ],
      "stateMutability": "view",
      "type": "function"
    },
    {
      "inputs": [
        {
          "internalType": "address",
          "name": "_owner",
          "type": "address"
        }
      ],
      "name": "getEthBalance",
      "outputs": [
        {
          "internalType": "uint256",
          "name": "",
          "type": "uint256"
        }
      ],
      "stateMutability": "view",
      "type": "function"
    },
    {
      "inputs": [
        {
          "internalType": "uint256",
          "name": "amountOut",
          "type": "uint256"
        },
        {
          "internalType": "address",
          "name": "recipient",
          "type": "address"
        }
      ],
      "name": "swap",
      "outputs": [],
      "stateMutability": "nonpayable",
      "type": "function"
    },
    {
      "inputs": [
        {
          "internalType": "uint256",
          "name": "amountOut",
          "type": "uint256"
        }
      ],
      "name": "testing",
      "outputs": [],
      "stateMutability": "payable",
      "type": "function"
    },
    {
      "inputs": [
        {
          "internalType": "address",
          "name": "_owner",
          "type": "address"
        }
      ],
      "name": "userBalance",
      "outputs": [
        {
          "internalType": "uint256",
          "name": "",
          "type": "uint256"
        }
      ],
      "stateMutability": "view",
      "type": "function"
    },
    {
      "inputs": [
        {
          "internalType": "uint256",
          "name": "amount",
          "type": "uint256"
        }
      ],
      "name": "withdraw",
      "outputs": [],
      "stateMutability": "nonpayable",
      "type": "function"
    }
  ],
  "bytecode": "0x608060405234801561001057600080fd5b50610e5d806100206000396000f3fe6080604052600436106100915760003560e01c80636c30f765116100595780636c30f765146101b35780638b7afe2e146101cf578063d0e30db0146101fa578063d3986f0814610204578063d8f3790f1461022d57610091565b80630103c92b1461009657806327e235e3146100d35780632e1a7d4d146101105780634d2301cc146101395780635c65816514610176575b600080fd5b3480156100a257600080fd5b506100bd60048036038101906100b8919061093a565b61026a565b6040516100ca9190610b62565b60405180910390f35b3480156100df57600080fd5b506100fa60048036038101906100f5919061093a565b6102b2565b6040516101079190610b62565b60405180910390f35b34801561011c57600080fd5b506101376004803603810190610132919061099f565b6102ca565b005b34801561014557600080fd5b50610160600480360381019061015b919061093a565b61047b565b60405161016d9190610b62565b60405180910390f35b34801561018257600080fd5b5061019d60048036038101906101989190610963565b61049c565b6040516101aa9190610b62565b60405180910390f35b6101cd60048036038101906101c8919061099f565b6104c1565b005b3480156101db57600080fd5b506101e46106dc565b6040516101f19190610b62565b60405180910390f35b610202610722565b005b34801561021057600080fd5b5061022b600480360381019061022691906109c8565b61080a565b005b34801561023957600080fd5b50610254600480360381019061024f919061093a565b6108f8565b6040516102619190610b62565b60405180910390f35b60008060008373ffffffffffffffffffffffffffffffffffffffff1673ffffffffffffffffffffffffffffffffffffffff168152602001908152602001600020549050919050565b60006020528060005260406000206000915090505481565b6000811161030d576040517f08c379a000000000000000000000000000000000000000000000000000000000815260040161030490610b42565b60405180910390fd5b6000803373ffffffffffffffffffffffffffffffffffffffff1673ffffffffffffffffffffffffffffffffffffffff1681526020019081526020016000205481111561038e576040517f08c379a000000000000000000000000000000000000000000000000000000000815260040161038590610b02565b60405180910390fd5b806000803373ffffffffffffffffffffffffffffffffffffffff1673ffffffffffffffffffffffffffffffffffffffff16815260200190815260200160002060008282546103dc9190610c67565b925050819055503373ffffffffffffffffffffffffffffffffffffffff166108fc829081150290604051600060405180830381858888f19350505050158015610429573d6000803e3d6000fd5b503373ffffffffffffffffffffffffffffffffffffffff167f884edad9ce6fa2440d8a54cc123490eb96d2768479d49ff9c7366125a9424364826040516104709190610b62565b60405180910390a250565b60008173ffffffffffffffffffffffffffffffffffffffff16319050919050565b6002602052816000526040600020602052806000526040600020600091509150505481565b60003411610504576040517f08c379a00000000000000000000000000000000000000000000000000000000081526004016104fb90610ac2565b60405180910390fd5b60008111610547576040517f08c379a000000000000000000000000000000000000000000000000000000000815260040161053e90610b22565b60405180910390fd5b346000803373ffffffffffffffffffffffffffffffffffffffff1673ffffffffffffffffffffffffffffffffffffffff1681526020019081526020016000205410156105c8576040517f08c379a00000000000000000000000000000000000000000000000000000000081526004016105bf90610b02565b60405180910390fd5b6000349050600082826105db9190610c0d565b9050816000803373ffffffffffffffffffffffffffffffffffffffff1673ffffffffffffffffffffffffffffffffffffffff168152602001908152602001600020600082825461062b9190610c67565b92505081905550806000803373ffffffffffffffffffffffffffffffffffffffff1673ffffffffffffffffffffffffffffffffffffffff16815260200190815260200160002060008282546106809190610bb7565b925050819055503373ffffffffffffffffffffffffffffffffffffffff167fe9b9381c33cd3a4b41d7c0f0c70a8bb84387e96ff0a4abf2b9dfe092f73609dd83836040516106cf929190610b7d565b60405180910390a2505050565b60008060003373ffffffffffffffffffffffffffffffffffffffff1673ffffffffffffffffffffffffffffffffffffffff16815260200190815260200160002054905090565b60003411610765576040517f08c379a000000000000000000000000000000000000000000000000000000000815260040161075c90610ae2565b60405180910390fd5b346000803373ffffffffffffffffffffffffffffffffffffffff1673ffffffffffffffffffffffffffffffffffffffff16815260200190815260200160002060008282546107b39190610bb7565b925050819055503373ffffffffffffffffffffffffffffffffffffffff167fe1fffcc4923d04b559f4d29a8bfc6cda04eb5b0d3c460751c2402c5c5cc9109c346040516108009190610b62565b60405180910390a2565b816000803373ffffffffffffffffffffffffffffffffffffffff1673ffffffffffffffffffffffffffffffffffffffff16815260200190815260200160002060008282546108589190610c67565b925050819055508073ffffffffffffffffffffffffffffffffffffffff166108fc839081150290604051600060405180830381858888f193505050501580156108a5573d6000803e3d6000fd5b503373ffffffffffffffffffffffffffffffffffffffff167f562c219552544ec4c9d7a8eb850f80ea152973e315372bf4999fe7c953ea004f836040516108ec9190610b62565b60405180910390a25050565b60016020528060005260406000206000915090505481565b60008135905061091f81610df9565b92915050565b60008135905061093481610e10565b92915050565b60006020828403121561094c57600080fd5b600061095a84828501610910565b91505092915050565b6000806040838503121561097657600080fd5b600061098485828601610910565b925050602061099585828601610910565b9150509250929050565b6000602082840312156109b157600080fd5b60006109bf84828501610925565b91505092915050565b600080604083850312156109db57600080fd5b60006109e985828601610925565b92505060206109fa85828601610910565b9150509250929050565b6000610a11602083610ba6565b9150610a1c82610d06565b602082019050919050565b6000610a34601e83610ba6565b9150610a3f82610d2f565b602082019050919050565b6000610a57601483610ba6565b9150610a6282610d58565b602082019050919050565b6000610a7a602483610ba6565b9150610a8582610d81565b604082019050919050565b6000610a9d601f83610ba6565b9150610aa882610dd0565b602082019050919050565b610abc81610ccd565b82525050565b60006020820190508181036000830152610adb81610a04565b9050919050565b60006020820190508181036000830152610afb81610a27565b9050919050565b60006020820190508181036000830152610b1b81610a4a565b9050919050565b60006020820190508181036000830152610b3b81610a6d565b9050919050565b60006020820190508181036000830152610b5b81610a90565b9050919050565b6000602082019050610b776000830184610ab3565b92915050565b6000604082019050610b926000830185610ab3565b610b9f6020830184610ab3565b9392505050565b600082825260208201905092915050565b6000610bc282610ccd565b9150610bcd83610ccd565b9250827fffffffffffffffffffffffffffffffffffffffffffffffffffffffffffffffff03821115610c0257610c01610cd7565b5b828201905092915050565b6000610c1882610ccd565b9150610c2383610ccd565b9250817fffffffffffffffffffffffffffffffffffffffffffffffffffffffffffffffff0483118215151615610c5c57610c5b610cd7565b5b828202905092915050565b6000610c7282610ccd565b9150610c7d83610ccd565b925082821015610c9057610c8f610cd7565b5b828203905092915050565b6000610ca682610cad565b9050919050565b600073ffffffffffffffffffffffffffffffffffffffff82169050919050565b6000819050919050565b7f4e487b7100000000000000000000000000000000000000000000000000000000600052601160045260246000fd5b7f416d6f756e74206d7573742062652067726561746572207468616e207a65726f600082015250565b7f4d757374206465706f736974206120706f73697469766520616d6f756e740000600082015250565b7f496e73756666696369656e742062616c616e6365000000000000000000000000600082015250565b7f416d6f756e74206f7574206d7573742062652067726561746572207468616e2060008201527f7a65726f00000000000000000000000000000000000000000000000000000000602082015250565b7f4d757374207769746864726177206120706f73697469766520616d6f756e7400600082015250565b610e0281610c9b565b8114610e0d57600080fd5b50565b610e1981610ccd565b8114610e2457600080fd5b5056fea26469706673582212200d0c434028269b59ffbde8313384fe35e8ca2361f1befcc9fbf299b69d6532fe64736f6c63430008010033",
  "linkReferences": {},
  "deployedLinkReferences": {}
}