{
  "_format": "hh-sol-artifact-1",
  "contractName": "MyNFT",
  "sourceName": "contracts/NFT.sol",
  "abi": [
    {
      "inputs": [],
      "stateMutability": "nonpayable",
      "type": "constructor"
    },
    {
      "anonymous": false,
      "inputs": [
        {
          "indexed": true,
          "internalType": "address",
          "name": "owner",
          "type": "address"
        },
        {
          "indexed": true,
          "internalType": "address",
          "name": "approved",
          "type": "address"
        },
        {
          "indexed": true,
          "internalType": "uint256",
          "name": "tokenId",
          "type": "uint256"
        }
      ],
      "name": "Approval",
      "type": "event"
    },
    {
      "anonymous": false,
      "inputs": [
        {
          "indexed": true,
          "internalType": "address",
          "name": "owner",
          "type": "address"
        },
        {
          "indexed": true,
          "internalType": "address",
          "name": "operator",
          "type": "address"
        },
        {
          "indexed": false,
          "internalType": "bool",
          "name": "approved",
          "type": "bool"
        }
      ],
      "name": "ApprovalForAll",
      "type": "event"
    },
    {
      "anonymous": false,
      "inputs": [
        {
          "indexed": true,
          "internalType": "address",
          "name": "previousOwner",
          "type": "address"
        },
        {
          "indexed": true,
          "internalType": "address",
          "name": "newOwner",
          "type": "address"
        }
      ],
      "name": "OwnershipTransferred",
      "type": "event"
    },
    {
      "anonymous": false,
      "inputs": [
        {
          "indexed": true,
          "internalType": "address",
          "name": "from",
          "type": "address"
        },
        {
          "indexed": true,
          "internalType": "address",
          "name": "to",
          "type": "address"
        },
        {
          "indexed": true,
          "internalType": "uint256",
          "name": "tokenId",
          "type": "uint256"
        }
      ],
      "name": "Transfer",
      "type": "event"
    },
    {
      "inputs": [
        {
          "internalType": "address",
          "name": "to",
          "type": "address"
        },
        {
          "internalType": "uint256",
          "name": "tokenId",
          "type": "uint256"
        }
      ],
      "name": "approve",
      "outputs": [],
      "stateMutability": "nonpayable",
      "type": "function"
    },
    {
      "inputs": [
        {
          "internalType": "address",
          "name": "owner",
          "type": "address"
        }
      ],
      "name": "balanceOf",
      "outputs": [
        {
          "internalType": "uint256",
          "name": "",
          "type": "uint256"
        }
      ],
      "stateMutability": "view",
      "type": "function"
    },
    {
      "inputs": [
        {
          "internalType": "uint256",
          "name": "tokenId",
          "type": "uint256"
        }
      ],
      "name": "getApproved",
      "outputs": [
        {
          "internalType": "address",
          "name": "",
          "type": "address"
        }
      ],
      "stateMutability": "view",
      "type": "function"
    },
    {
      "inputs": [
        {
          "internalType": "uint256",
          "name": "tokenId",
          "type": "uint256"
        }
      ],
      "name": "getNFT",
      "outputs": [
        {
          "internalType": "string",
          "name": "name",
          "type": "string"
        },
        {
          "internalType": "string",
          "name": "ipfsHash",
          "type": "string"
        }
      ],
      "stateMutability": "view",
      "type": "function"
    },
    {
      "inputs": [
        {
          "internalType": "address",
          "name": "owner",
          "type": "address"
        },
        {
          "internalType": "address",
          "name": "operator",
          "type": "address"
        }
      ],
      "name": "isApprovedForAll",
      "outputs": [
        {
          "internalType": "bool",
          "name": "",
          "type": "bool"
        }
      ],
      "stateMutability": "view",
      "type": "function"
    },
    {
      "inputs": [
        {
          "internalType": "address",
          "name": "to",
          "type": "address"
        },
        {
          "internalType": "string",
          "name": "name",
          "type": "string"
        },
        {
          "internalType": "string",
          "name": "ipfsHash",
          "type": "string"
        }
      ],
      "name": "mint",
      "outputs": [],
      "stateMutability": "nonpayable",
      "type": "function"
    },
    {
      "inputs": [],
      "name": "name",
      "outputs": [
        {
          "internalType": "string",
          "name": "",
          "type": "string"
        }
      ],
      "stateMutability": "view",
      "type": "function"
    },
    {
      "inputs": [],
      "name": "owner",
      "outputs": [
        {
          "internalType": "address",
          "name": "",
          "type": "address"
        }
      ],
      "stateMutability": "view",
      "type": "function"
    },
    {
      "inputs": [
        {
          "internalType": "uint256",
          "name": "tokenId",
          "type": "uint256"
        }
      ],
      "name": "ownerOf",
      "outputs": [
        {
          "internalType": "address",
          "name": "",
          "type": "address"
        }
      ],
      "stateMutability": "view",
      "type": "function"
    },
    {
      "inputs": [],
      "name": "renounceOwnership",
      "outputs": [],
      "stateMutability": "nonpayable",
      "type": "function"
    },
    {
      "inputs": [
        {
          "internalType": "address",
          "name": "from",
          "type": "address"
        },
        {
          "internalType": "address",
          "name": "to",
          "type": "address"
        },
        {
          "internalType": "uint256",
          "name": "tokenId",
          "type": "uint256"
        }
      ],
      "name": "safeTransferFrom",
      "outputs": [],
      "stateMutability": "nonpayable",
      "type": "function"
    },
    {
      "inputs": [
        {
          "internalType": "address",
          "name": "from",
          "type": "address"
        },
        {
          "internalType": "address",
          "name": "to",
          "type": "address"
        },
        {
          "internalType": "uint256",
          "name": "tokenId",
          "type": "uint256"
        },
        {
          "internalType": "bytes",
          "name": "data",
          "type": "bytes"
        }
      ],
      "name": "safeTransferFrom",
      "outputs": [],
      "stateMutability": "nonpayable",
      "type": "function"
    },
    {
      "inputs": [
        {
          "internalType": "address",
          "name": "operator",
          "type": "address"
        },
        {
          "internalType": "bool",
          "name": "approved",
          "type": "bool"
        }
      ],
      "name": "setApprovalForAll",
      "outputs": [],
      "stateMutability": "nonpayable",
      "type": "function"
    },
    {
      "inputs": [
        {
          "internalType": "bytes4",
          "name": "interfaceId",
          "type": "bytes4"
        }
      ],
      "name": "supportsInterface",
      "outputs": [
        {
          "internalType": "bool",
          "name": "",
          "type": "bool"
        }
      ],
      "stateMutability": "view",
      "type": "function"
    },
    {
      "inputs": [],
      "name": "symbol",
      "outputs": [
        {
          "internalType": "string",
          "name": "",
          "type": "string"
        }
      ],
      "stateMutability": "view",
      "type": "function"
    },
    {
      "inputs": [
        {
          "internalType": "uint256",
          "name": "tokenId",
          "type": "uint256"
        }
      ],
      "name": "tokenURI",
      "outputs": [
        {
          "internalType": "string",
          "name": "",
          "type": "string"
        }
      ],
      "stateMutability": "view",
      "type": "function"
    },
    {
      "inputs": [
        {
          "internalType": "address",
          "name": "from",
          "type": "address"
        },
        {
          "internalType": "address",
          "name": "to",
          "type": "address"
        },
        {
          "internalType": "uint256",
          "name": "tokenId",
          "type": "uint256"
        }
      ],
      "name": "transferFrom",
      "outputs": [],
      "stateMutability": "nonpayable",
      "type": "function"
    },
    {
      "inputs": [
        {
          "internalType": "address",
          "name": "newOwner",
          "type": "address"
        }
      ],
      "name": "transferOwnership",
      "outputs": [],
      "stateMutability": "nonpayable",
      "type": "function"
    }
  ],
  "bytecode": "0x60806040523480156200001157600080fd5b506040518060400160405280600581526020017f4d794e46540000000000000000000000000000000000000000000000000000008152506040518060400160405280600381526020017f4e46540000000000000000000000000000000000000000000000000000000000815250816000908051906020019062000096929190620001a6565b508060019080519060200190620000af929190620001a6565b505050620000d2620000c6620000d860201b60201c565b620000e060201b60201c565b620002bb565b600033905090565b6000600660009054906101000a900473ffffffffffffffffffffffffffffffffffffffff16905081600660006101000a81548173ffffffffffffffffffffffffffffffffffffffff021916908373ffffffffffffffffffffffffffffffffffffffff1602179055508173ffffffffffffffffffffffffffffffffffffffff168173ffffffffffffffffffffffffffffffffffffffff167f8be0079c531659141344cd1fd0a4f28419497f9722a3daafe3b4186f6b6457e060405160405180910390a35050565b828054620001b49062000256565b90600052602060002090601f016020900481019282620001d8576000855562000224565b82601f10620001f357805160ff191683800117855562000224565b8280016001018555821562000224579182015b828111156200022357825182559160200191906001019062000206565b5b50905062000233919062000237565b5090565b5b808211156200025257600081600090555060010162000238565b5090565b600060028204905060018216806200026f57607f821691505b602082108114156200028657620002856200028c565b5b50919050565b7f4e487b7100000000000000000000000000000000000000000000000000000000600052602260045260246000fd5b612e6480620002cb6000396000f3fe608060405234801561001057600080fd5b50600436106101165760003560e01c8063715018a6116100a2578063a22cb46511610071578063a22cb465146102e0578063b88d4fde146102fc578063c87b56dd14610318578063e985e9c514610348578063f2fde38b1461037857610116565b8063715018a61461027e5780638da5cb5b1461028857806395d89b41146102a657806399071190146102c457610116565b806323b872dd116100e957806323b872dd146101b557806342842e0e146101d1578063576f7ea7146101ed5780636352211e1461021e57806370a082311461024e57610116565b806301ffc9a71461011b57806306fdde031461014b578063081812fc14610169578063095ea7b314610199575b600080fd5b6101356004803603810190610130919061218b565b610394565b604051610142919061254b565b60405180910390f35b610153610476565b6040516101609190612566565b60405180910390f35b610183600480360381019061017e91906121dd565b610508565b60405161019091906124e4565b60405180910390f35b6101b360048036038101906101ae919061214f565b61054e565b005b6101cf60048036038101906101ca9190611fca565b610666565b005b6101eb60048036038101906101e69190611fca565b6106c6565b005b610207600480360381019061020291906121dd565b6106e6565b604051610215929190612588565b60405180910390f35b610238600480360381019061023391906121dd565b61088b565b60405161024591906124e4565b60405180910390f35b61026860048036038101906102639190611f65565b610912565b604051610275919061277f565b60405180910390f35b6102866109ca565b005b6102906109de565b60405161029d91906124e4565b60405180910390f35b6102ae610a08565b6040516102bb9190612566565b60405180910390f35b6102de60048036038101906102d991906120d0565b610a9a565b005b6102fa60048036038101906102f59190612094565b610b32565b005b61031660048036038101906103119190612019565b610b48565b005b610332600480360381019061032d91906121dd565b610baa565b60405161033f9190612566565b60405180910390f35b610362600480360381019061035d9190611f8e565b610c12565b60405161036f919061254b565b60405180910390f35b610392600480360381019061038d9190611f65565b610ca6565b005b60007f80ac58cd000000000000000000000000000000000000000000000000000000007bffffffffffffffffffffffffffffffffffffffffffffffffffffffff1916827bffffffffffffffffffffffffffffffffffffffffffffffffffffffff1916148061045f57507f5b5e139f000000000000000000000000000000000000000000000000000000007bffffffffffffffffffffffffffffffffffffffffffffffffffffffff1916827bffffffffffffffffffffffffffffffffffffffffffffffffffffffff1916145b8061046f575061046e82610d2a565b5b9050919050565b6060600080546104859061291a565b80601f01602080910402602001604051908101604052809291908181526020018280546104b19061291a565b80156104fe5780601f106104d3576101008083540402835291602001916104fe565b820191906000526020600020905b8154815290600101906020018083116104e157829003601f168201915b5050505050905090565b600061051382610d94565b6004600083815260200190815260200160002060009054906101000a900473ffffffffffffffffffffffffffffffffffffffff169050919050565b60006105598261088b565b90508073ffffffffffffffffffffffffffffffffffffffff168373ffffffffffffffffffffffffffffffffffffffff1614156105ca576040517f08c379a00000000000000000000000000000000000000000000000000000000081526004016105c19061271f565b60405180910390fd5b8073ffffffffffffffffffffffffffffffffffffffff166105e9610ddf565b73ffffffffffffffffffffffffffffffffffffffff161480610618575061061781610612610ddf565b610c12565b5b610657576040517f08c379a000000000000000000000000000000000000000000000000000000000815260040161064e9061273f565b60405180910390fd5b6106618383610de7565b505050565b610677610671610ddf565b82610ea0565b6106b6576040517f08c379a00000000000000000000000000000000000000000000000000000000081526004016106ad906125bf565b60405180910390fd5b6106c1838383610f35565b505050565b6106e183838360405180602001604052806000815250610b48565b505050565b6060806106f28361122f565b610731576040517f08c379a00000000000000000000000000000000000000000000000000000000081526004016107289061275f565b60405180910390fd5b6000600760008581526020019081526020016000206040518060400160405290816000820180546107619061291a565b80601f016020809104026020016040519081016040528092919081815260200182805461078d9061291a565b80156107da5780601f106107af576101008083540402835291602001916107da565b820191906000526020600020905b8154815290600101906020018083116107bd57829003601f168201915b505050505081526020016001820180546107f39061291a565b80601f016020809104026020016040519081016040528092919081815260200182805461081f9061291a565b801561086c5780601f106108415761010080835404028352916020019161086c565b820191906000526020600020905b81548152906001019060200180831161084f57829003601f168201915b5050505050815250509050806000015181602001519250925050915091565b60008061089783611270565b9050600073ffffffffffffffffffffffffffffffffffffffff168173ffffffffffffffffffffffffffffffffffffffff161415610909576040517f08c379a0000000000000000000000000000000000000000000000000000000008152600401610900906126ff565b60405180910390fd5b80915050919050565b60008073ffffffffffffffffffffffffffffffffffffffff168273ffffffffffffffffffffffffffffffffffffffff161415610983576040517f08c379a000000000000000000000000000000000000000000000000000000000815260040161097a9061269f565b60405180910390fd5b600360008373ffffffffffffffffffffffffffffffffffffffff1673ffffffffffffffffffffffffffffffffffffffff168152602001908152602001600020549050919050565b6109d26112ad565b6109dc600061132b565b565b6000600660009054906101000a900473ffffffffffffffffffffffffffffffffffffffff16905090565b606060018054610a179061291a565b80601f0160208091040260200160405190810160405280929190818152602001828054610a439061291a565b8015610a905780601f10610a6557610100808354040283529160200191610a90565b820191906000526020600020905b815481529060010190602001808311610a7357829003601f168201915b5050505050905090565b610aa26112ad565b600060086000815480929190610ab79061297d565b919050559050604051806040016040528084815260200183815250600760008381526020019081526020016000206000820151816000019080519060200190610b01929190611d89565b506020820151816001019080519060200190610b1e929190611d89565b50905050610b2c84826113f1565b50505050565b610b44610b3d610ddf565b838361140f565b5050565b610b59610b53610ddf565b83610ea0565b610b98576040517f08c379a0000000000000000000000000000000000000000000000000000000008152600401610b8f906125bf565b60405180910390fd5b610ba48484848461157c565b50505050565b6060610bb582610d94565b6000610bbf6115d8565b90506000815111610bdf5760405180602001604052806000815250610c0a565b80610be9846115ef565b604051602001610bfa9291906124c0565b6040516020818303038152906040525b915050919050565b6000600560008473ffffffffffffffffffffffffffffffffffffffff1673ffffffffffffffffffffffffffffffffffffffff16815260200190815260200160002060008373ffffffffffffffffffffffffffffffffffffffff1673ffffffffffffffffffffffffffffffffffffffff16815260200190815260200160002060009054906101000a900460ff16905092915050565b610cae6112ad565b600073ffffffffffffffffffffffffffffffffffffffff168173ffffffffffffffffffffffffffffffffffffffff161415610d1e576040517f08c379a0000000000000000000000000000000000000000000000000000000008152600401610d15906125ff565b60405180910390fd5b610d278161132b565b50565b60007f01ffc9a7000000000000000000000000000000000000000000000000000000007bffffffffffffffffffffffffffffffffffffffffffffffffffffffff1916827bffffffffffffffffffffffffffffffffffffffffffffffffffffffff1916149050919050565b610d9d8161122f565b610ddc576040517f08c379a0000000000000000000000000000000000000000000000000000000008152600401610dd3906126ff565b60405180910390fd5b50565b600033905090565b816004600083815260200190815260200160002060006101000a81548173ffffffffffffffffffffffffffffffffffffffff021916908373ffffffffffffffffffffffffffffffffffffffff160217905550808273ffffffffffffffffffffffffffffffffffffffff16610e5a8361088b565b73ffffffffffffffffffffffffffffffffffffffff167f8c5be1e5ebec7d5bd14f71427d1e84f3dd0314c0f7b2291e5b200ac8c7c3b92560405160405180910390a45050565b600080610eac8361088b565b90508073ffffffffffffffffffffffffffffffffffffffff168473ffffffffffffffffffffffffffffffffffffffff161480610eee5750610eed8185610c12565b5b80610f2c57508373ffffffffffffffffffffffffffffffffffffffff16610f1484610508565b73ffffffffffffffffffffffffffffffffffffffff16145b91505092915050565b8273ffffffffffffffffffffffffffffffffffffffff16610f558261088b565b73ffffffffffffffffffffffffffffffffffffffff1614610fab576040517f08c379a0000000000000000000000000000000000000000000000000000000008152600401610fa29061261f565b60405180910390fd5b600073ffffffffffffffffffffffffffffffffffffffff168273ffffffffffffffffffffffffffffffffffffffff16141561101b576040517f08c379a00000000000000000000000000000000000000000000000000000000081526004016110129061265f565b60405180910390fd5b6110288383836001611713565b8273ffffffffffffffffffffffffffffffffffffffff166110488261088b565b73ffffffffffffffffffffffffffffffffffffffff161461109e576040517f08c379a00000000000000000000000000000000000000000000000000000000081526004016110959061261f565b60405180910390fd5b6004600082815260200190815260200160002060006101000a81549073ffffffffffffffffffffffffffffffffffffffff02191690556001600360008573ffffffffffffffffffffffffffffffffffffffff1673ffffffffffffffffffffffffffffffffffffffff168152602001908152602001600020600082825403925050819055506001600360008473ffffffffffffffffffffffffffffffffffffffff1673ffffffffffffffffffffffffffffffffffffffff16815260200190815260200160002060008282540192505081905550816002600083815260200190815260200160002060006101000a81548173ffffffffffffffffffffffffffffffffffffffff021916908373ffffffffffffffffffffffffffffffffffffffff160217905550808273ffffffffffffffffffffffffffffffffffffffff168473ffffffffffffffffffffffffffffffffffffffff167fddf252ad1be2c89b69c2b068fc378daa952ba7f163c4a11628f55a4df523b3ef60405160405180910390a461122a8383836001611719565b505050565b60008073ffffffffffffffffffffffffffffffffffffffff1661125183611270565b73ffffffffffffffffffffffffffffffffffffffff1614159050919050565b60006002600083815260200190815260200160002060009054906101000a900473ffffffffffffffffffffffffffffffffffffffff169050919050565b6112b5610ddf565b73ffffffffffffffffffffffffffffffffffffffff166112d36109de565b73ffffffffffffffffffffffffffffffffffffffff1614611329576040517f08c379a0000000000000000000000000000000000000000000000000000000008152600401611320906126df565b60405180910390fd5b565b6000600660009054906101000a900473ffffffffffffffffffffffffffffffffffffffff16905081600660006101000a81548173ffffffffffffffffffffffffffffffffffffffff021916908373ffffffffffffffffffffffffffffffffffffffff1602179055508173ffffffffffffffffffffffffffffffffffffffff168173ffffffffffffffffffffffffffffffffffffffff167f8be0079c531659141344cd1fd0a4f28419497f9722a3daafe3b4186f6b6457e060405160405180910390a35050565b61140b82826040518060200160405280600081525061171f565b5050565b8173ffffffffffffffffffffffffffffffffffffffff168373ffffffffffffffffffffffffffffffffffffffff16141561147e576040517f08c379a00000000000000000000000000000000000000000000000000000000081526004016114759061267f565b60405180910390fd5b80600560008573ffffffffffffffffffffffffffffffffffffffff1673ffffffffffffffffffffffffffffffffffffffff16815260200190815260200160002060008473ffffffffffffffffffffffffffffffffffffffff1673ffffffffffffffffffffffffffffffffffffffff16815260200190815260200160002060006101000a81548160ff0219169083151502179055508173ffffffffffffffffffffffffffffffffffffffff168373ffffffffffffffffffffffffffffffffffffffff167f17307eab39ab6107e8899845ad3d59bd9653f200f220920489ca2b5937696c318360405161156f919061254b565b60405180910390a3505050565b611587848484610f35565b6115938484848461177a565b6115d2576040517f08c379a00000000000000000000000000000000000000000000000000000000081526004016115c9906125df565b60405180910390fd5b50505050565b606060405180602001604052806000815250905090565b6060600060016115fe84611911565b01905060008167ffffffffffffffff811115611643577f4e487b7100000000000000000000000000000000000000000000000000000000600052604160045260246000fd5b6040519080825280601f01601f1916602001820160405280156116755781602001600182028036833780820191505090505b509050600082602001820190505b600115611708578080600190039150507f3031323334353637383961626364656600000000000000000000000000000000600a86061a8153600a85816116f2577f4e487b7100000000000000000000000000000000000000000000000000000000600052601260045260246000fd5b049450600085141561170357611708565b611683565b819350505050919050565b50505050565b50505050565b6117298383611b48565b611736600084848461177a565b611775576040517f08c379a000000000000000000000000000000000000000000000000000000000815260040161176c906125df565b60405180910390fd5b505050565b600061179b8473ffffffffffffffffffffffffffffffffffffffff16611d66565b15611904578373ffffffffffffffffffffffffffffffffffffffff1663150b7a026117c4610ddf565b8786866040518563ffffffff1660e01b81526004016117e694939291906124ff565b602060405180830381600087803b15801561180057600080fd5b505af192505050801561183157506040513d601f19601f8201168201806040525081019061182e91906121b4565b60015b6118b4573d8060008114611861576040519150601f19603f3d011682016040523d82523d6000602084013e611866565b606091505b506000815114156118ac576040517f08c379a00000000000000000000000000000000000000000000000000000000081526004016118a3906125df565b60405180910390fd5b805181602001fd5b63150b7a0260e01b7bffffffffffffffffffffffffffffffffffffffffffffffffffffffff1916817bffffffffffffffffffffffffffffffffffffffffffffffffffffffff191614915050611909565b600190505b949350505050565b600080600090507a184f03e93ff9f4daa797ed6e38ed64bf6a1f0100000000000000008310611995577a184f03e93ff9f4daa797ed6e38ed64bf6a1f010000000000000000838161198b577f4e487b7100000000000000000000000000000000000000000000000000000000600052601260045260246000fd5b0492506040810190505b6d04ee2d6d415b85acef810000000083106119f8576d04ee2d6d415b85acef810000000083816119ee577f4e487b7100000000000000000000000000000000000000000000000000000000600052601260045260246000fd5b0492506020810190505b662386f26fc100008310611a4d57662386f26fc100008381611a43577f4e487b7100000000000000000000000000000000000000000000000000000000600052601260045260246000fd5b0492506010810190505b6305f5e1008310611a9c576305f5e1008381611a92577f4e487b7100000000000000000000000000000000000000000000000000000000600052601260045260246000fd5b0492506008810190505b6127108310611ae7576127108381611add577f4e487b7100000000000000000000000000000000000000000000000000000000600052601260045260246000fd5b0492506004810190505b60648310611b305760648381611b26577f4e487b7100000000000000000000000000000000000000000000000000000000600052601260045260246000fd5b0492506002810190505b600a8310611b3f576001810190505b80915050919050565b600073ffffffffffffffffffffffffffffffffffffffff168273ffffffffffffffffffffffffffffffffffffffff161415611bb8576040517f08c379a0000000000000000000000000000000000000000000000000000000008152600401611baf906126bf565b60405180910390fd5b611bc18161122f565b15611c01576040517f08c379a0000000000000000000000000000000000000000000000000000000008152600401611bf89061263f565b60405180910390fd5b611c0f600083836001611713565b611c188161122f565b15611c58576040517f08c379a0000000000000000000000000000000000000000000000000000000008152600401611c4f9061263f565b60405180910390fd5b6001600360008473ffffffffffffffffffffffffffffffffffffffff1673ffffffffffffffffffffffffffffffffffffffff16815260200190815260200160002060008282540192505081905550816002600083815260200190815260200160002060006101000a81548173ffffffffffffffffffffffffffffffffffffffff021916908373ffffffffffffffffffffffffffffffffffffffff160217905550808273ffffffffffffffffffffffffffffffffffffffff16600073ffffffffffffffffffffffffffffffffffffffff167fddf252ad1be2c89b69c2b068fc378daa952ba7f163c4a11628f55a4df523b3ef60405160405180910390a4611d62600083836001611719565b5050565b6000808273ffffffffffffffffffffffffffffffffffffffff163b119050919050565b828054611d959061291a565b90600052602060002090601f016020900481019282611db75760008555611dfe565b82601f10611dd057805160ff1916838001178555611dfe565b82800160010185558215611dfe579182015b82811115611dfd578251825591602001919060010190611de2565b5b509050611e0b9190611e0f565b5090565b5b80821115611e28576000816000905550600101611e10565b5090565b6000611e3f611e3a846127bf565b61279a565b905082815260208101848484011115611e5757600080fd5b611e628482856128d8565b509392505050565b6000611e7d611e78846127f0565b61279a565b905082815260208101848484011115611e9557600080fd5b611ea08482856128d8565b509392505050565b600081359050611eb781612dd2565b92915050565b600081359050611ecc81612de9565b92915050565b600081359050611ee181612e00565b92915050565b600081519050611ef681612e00565b92915050565b600082601f830112611f0d57600080fd5b8135611f1d848260208601611e2c565b91505092915050565b600082601f830112611f3757600080fd5b8135611f47848260208601611e6a565b91505092915050565b600081359050611f5f81612e17565b92915050565b600060208284031215611f7757600080fd5b6000611f8584828501611ea8565b91505092915050565b60008060408385031215611fa157600080fd5b6000611faf85828601611ea8565b9250506020611fc085828601611ea8565b9150509250929050565b600080600060608486031215611fdf57600080fd5b6000611fed86828701611ea8565b9350506020611ffe86828701611ea8565b925050604061200f86828701611f50565b9150509250925092565b6000806000806080858703121561202f57600080fd5b600061203d87828801611ea8565b945050602061204e87828801611ea8565b935050604061205f87828801611f50565b925050606085013567ffffffffffffffff81111561207c57600080fd5b61208887828801611efc565b91505092959194509250565b600080604083850312156120a757600080fd5b60006120b585828601611ea8565b92505060206120c685828601611ebd565b9150509250929050565b6000806000606084860312156120e557600080fd5b60006120f386828701611ea8565b935050602084013567ffffffffffffffff81111561211057600080fd5b61211c86828701611f26565b925050604084013567ffffffffffffffff81111561213957600080fd5b61214586828701611f26565b9150509250925092565b6000806040838503121561216257600080fd5b600061217085828601611ea8565b925050602061218185828601611f50565b9150509250929050565b60006020828403121561219d57600080fd5b60006121ab84828501611ed2565b91505092915050565b6000602082840312156121c657600080fd5b60006121d484828501611ee7565b91505092915050565b6000602082840312156121ef57600080fd5b60006121fd84828501611f50565b91505092915050565b61220f81612864565b82525050565b61221e81612876565b82525050565b600061222f82612821565b6122398185612837565b93506122498185602086016128e7565b61225281612a53565b840191505092915050565b60006122688261282c565b6122728185612848565b93506122828185602086016128e7565b61228b81612a53565b840191505092915050565b60006122a18261282c565b6122ab8185612859565b93506122bb8185602086016128e7565b80840191505092915050565b60006122d4602d83612848565b91506122df82612a64565b604082019050919050565b60006122f7603283612848565b915061230282612ab3565b604082019050919050565b600061231a602683612848565b915061232582612b02565b604082019050919050565b600061233d602583612848565b915061234882612b51565b604082019050919050565b6000612360601c83612848565b915061236b82612ba0565b602082019050919050565b6000612383602483612848565b915061238e82612bc9565b604082019050919050565b60006123a6601983612848565b91506123b182612c18565b602082019050919050565b60006123c9602983612848565b91506123d482612c41565b604082019050919050565b60006123ec602083612848565b91506123f782612c90565b602082019050919050565b600061240f602083612848565b915061241a82612cb9565b602082019050919050565b6000612432601883612848565b915061243d82612ce2565b602082019050919050565b6000612455602183612848565b915061246082612d0b565b604082019050919050565b6000612478603d83612848565b915061248382612d5a565b604082019050919050565b600061249b601283612848565b91506124a682612da9565b602082019050919050565b6124ba816128ce565b82525050565b60006124cc8285612296565b91506124d88284612296565b91508190509392505050565b60006020820190506124f96000830184612206565b92915050565b60006080820190506125146000830187612206565b6125216020830186612206565b61252e60408301856124b1565b81810360608301526125408184612224565b905095945050505050565b60006020820190506125606000830184612215565b92915050565b60006020820190508181036000830152612580818461225d565b905092915050565b600060408201905081810360008301526125a2818561225d565b905081810360208301526125b6818461225d565b90509392505050565b600060208201905081810360008301526125d8816122c7565b9050919050565b600060208201905081810360008301526125f8816122ea565b9050919050565b600060208201905081810360008301526126188161230d565b9050919050565b6000602082019050818103600083015261263881612330565b9050919050565b6000602082019050818103600083015261265881612353565b9050919050565b6000602082019050818103600083015261267881612376565b9050919050565b6000602082019050818103600083015261269881612399565b9050919050565b600060208201905081810360008301526126b8816123bc565b9050919050565b600060208201905081810360008301526126d8816123df565b9050919050565b600060208201905081810360008301526126f881612402565b9050919050565b6000602082019050818103600083015261271881612425565b9050919050565b6000602082019050818103600083015261273881612448565b9050919050565b600060208201905081810360008301526127588161246b565b9050919050565b600060208201905081810360008301526127788161248e565b9050919050565b600060208201905061279460008301846124b1565b92915050565b60006127a46127b5565b90506127b0828261294c565b919050565b6000604051905090565b600067ffffffffffffffff8211156127da576127d9612a24565b5b6127e382612a53565b9050602081019050919050565b600067ffffffffffffffff82111561280b5761280a612a24565b5b61281482612a53565b9050602081019050919050565b600081519050919050565b600081519050919050565b600082825260208201905092915050565b600082825260208201905092915050565b600081905092915050565b600061286f826128ae565b9050919050565b60008115159050919050565b60007fffffffff0000000000000000000000000000000000000000000000000000000082169050919050565b600073ffffffffffffffffffffffffffffffffffffffff82169050919050565b6000819050919050565b82818337600083830152505050565b60005b838110156129055780820151818401526020810190506128ea565b83811115612914576000848401525b50505050565b6000600282049050600182168061293257607f821691505b60208210811415612946576129456129f5565b5b50919050565b61295582612a53565b810181811067ffffffffffffffff8211171561297457612973612a24565b5b80604052505050565b6000612988826128ce565b91507fffffffffffffffffffffffffffffffffffffffffffffffffffffffffffffffff8214156129bb576129ba6129c6565b5b600182019050919050565b7f4e487b7100000000000000000000000000000000000000000000000000000000600052601160045260246000fd5b7f4e487b7100000000000000000000000000000000000000000000000000000000600052602260045260246000fd5b7f4e487b7100000000000000000000000000000000000000000000000000000000600052604160045260246000fd5b6000601f19601f8301169050919050565b7f4552433732313a2063616c6c6572206973206e6f7420746f6b656e206f776e6560008201527f72206f7220617070726f76656400000000000000000000000000000000000000602082015250565b7f4552433732313a207472616e7366657220746f206e6f6e20455243373231526560008201527f63656976657220696d706c656d656e7465720000000000000000000000000000602082015250565b7f4f776e61626c653a206e6577206f776e657220697320746865207a65726f206160008201527f6464726573730000000000000000000000000000000000000000000000000000602082015250565b7f4552433732313a207472616e736665722066726f6d20696e636f72726563742060008201527f6f776e6572000000000000000000000000000000000000000000000000000000602082015250565b7f4552433732313a20746f6b656e20616c7265616479206d696e74656400000000600082015250565b7f4552433732313a207472616e7366657220746f20746865207a65726f2061646460008201527f7265737300000000000000000000000000000000000000000000000000000000602082015250565b7f4552433732313a20617070726f766520746f2063616c6c657200000000000000600082015250565b7f4552433732313a2061646472657373207a65726f206973206e6f74206120766160008201527f6c6964206f776e65720000000000000000000000000000000000000000000000602082015250565b7f4552433732313a206d696e7420746f20746865207a65726f2061646472657373600082015250565b7f4f776e61626c653a2063616c6c6572206973206e6f7420746865206f776e6572600082015250565b7f4552433732313a20696e76616c696420746f6b656e2049440000000000000000600082015250565b7f4552433732313a20617070726f76616c20746f2063757272656e74206f776e6560008201527f7200000000000000000000000000000000000000000000000000000000000000602082015250565b7f4552433732313a20617070726f76652063616c6c6572206973206e6f7420746f60008201527f6b656e206f776e6572206f7220617070726f76656420666f7220616c6c000000602082015250565b7f4e465420646f6573206e6f742065786973740000000000000000000000000000600082015250565b612ddb81612864565b8114612de657600080fd5b50565b612df281612876565b8114612dfd57600080fd5b50565b612e0981612882565b8114612e1457600080fd5b50565b612e20816128ce565b8114612e2b57600080fd5b5056fea264697066735822122053cbcf082b19428877302e1e072bb03d9c49a9f0c7b530c671c024da9a2bfe0a64736f6c63430008010033",
  "linkReferences": {},
  "deployedLinkReferences": {}
}