{
  "_format": "hh-sol-artifact-1",
  "contractName": "EmitSol",
  "sourceName": "contracts/EmitSol.sol",
  "abi": [
    {
      "inputs": [],
      "stateMutability": "nonpayable",
      "type": "constructor"
    },
    {
      "anonymous": false,
      "inputs": [
        {
          "indexed": true,
          "internalType": "address",
          "name": "depositor",
          "type": "address"
        },
        {
          "indexed": false,
          "internalType": "uint256",
          "name": "amount",
          "type": "uint256"
        }
      ],
      "name": "Deposit",
      "type": "event"
    },
    {
      "anonymous": false,
      "inputs": [
        {
          "indexed": true,
          "internalType": "address",
          "name": "recipient",
          "type": "address"
        },
        {
          "indexed": false,
          "internalType": "uint256",
          "name": "amount",
          "type": "uint256"
        }
      ],
      "name": "Emit",
      "type": "event"
    },
    {
      "anonymous": false,
      "inputs": [
        {
          "indexed": true,
          "internalType": "address",
          "name": "from",
          "type": "address"
        },
        {
          "indexed": true,
          "internalType": "address",
          "name": "to",
          "type": "address"
        },
        {
          "indexed": false,
          "internalType": "uint256",
          "name": "value",
          "type": "uint256"
        }
      ],
      "name": "Transfer",
      "type": "event"
    },
    {
      "inputs": [],
      "name": "deposit",
      "outputs": [],
      "stateMutability": "payable",
      "type": "function"
    },
    {
      "inputs": [
        {
          "internalType": "address",
          "name": "",
          "type": "address"
        }
      ],
      "name": "ethBalances",
      "outputs": [
        {
          "internalType": "uint256",
          "name": "",
          "type": "uint256"
        }
      ],
      "stateMutability": "view",
      "type": "function"
    },
    {
      "inputs": [
        {
          "internalType": "address",
          "name": "_owner",
          "type": "address"
        }
      ],
      "name": "getMilkBalance",
      "outputs": [
        {
          "internalType": "uint256",
          "name": "",
          "type": "uint256"
        }
      ],
      "stateMutability": "view",
      "type": "function"
    },
    {
      "inputs": [
        {
          "internalType": "address",
          "name": "",
          "type": "address"
        }
      ],
      "name": "lastEmitTime",
      "outputs": [
        {
          "internalType": "uint256",
          "name": "",
          "type": "uint256"
        }
      ],
      "stateMutability": "view",
      "type": "function"
    },
    {
      "inputs": [
        {
          "internalType": "address",
          "name": "",
          "type": "address"
        }
      ],
      "name": "milkBalances",
      "outputs": [
        {
          "internalType": "uint256",
          "name": "",
          "type": "uint256"
        }
      ],
      "stateMutability": "view",
      "type": "function"
    },
    {
      "inputs": [],
      "name": "name",
      "outputs": [
        {
          "internalType": "string",
          "name": "",
          "type": "string"
        }
      ],
      "stateMutability": "view",
      "type": "function"
    },
    {
      "inputs": [],
      "name": "symbol",
      "outputs": [
        {
          "internalType": "string",
          "name": "",
          "type": "string"
        }
      ],
      "stateMutability": "view",
      "type": "function"
    },
    {
      "inputs": [],
      "name": "totalSupply",
      "outputs": [
        {
          "internalType": "uint256",
          "name": "",
          "type": "uint256"
        }
      ],
      "stateMutability": "view",
      "type": "function"
    },
    {
      "inputs": [
        {
          "internalType": "address",
          "name": "_to",
          "type": "address"
        },
        {
          "internalType": "uint256",
          "name": "_value",
          "type": "uint256"
        }
      ],
      "name": "transfer",
      "outputs": [
        {
          "internalType": "bool",
          "name": "",
          "type": "bool"
        }
      ],
      "stateMutability": "nonpayable",
      "type": "function"
    },
    {
      "inputs": [
        {
          "internalType": "address",
          "name": "_owner",
          "type": "address"
        }
      ],
      "name": "userDepositedBalance",
      "outputs": [
        {
          "internalType": "uint256",
          "name": "",
          "type": "uint256"
        }
      ],
      "stateMutability": "view",
      "type": "function"
    }
  ],
  "bytecode": "0x60806040526040518060400160405280600481526020017f4d494c4b00000000000000000000000000000000000000000000000000000000815250600090805190602001906200005192919062000101565b506040518060400160405280600481526020017f4d494c4b00000000000000000000000000000000000000000000000000000000815250600190805190602001906200009f92919062000101565b50620f4240600255348015620000b457600080fd5b50600254600360003373ffffffffffffffffffffffffffffffffffffffff1673ffffffffffffffffffffffffffffffffffffffff1681526020019081526020016000208190555062000216565b8280546200010f90620001b1565b90600052602060002090601f0160209004810192826200013357600085556200017f565b82601f106200014e57805160ff19168380011785556200017f565b828001600101855582156200017f579182015b828111156200017e57825182559160200191906001019062000161565b5b5090506200018e919062000192565b5090565b5b80821115620001ad57600081600090555060010162000193565b5090565b60006002820490506001821680620001ca57607f821691505b60208210811415620001e157620001e0620001e7565b5b50919050565b7f4e487b7100000000000000000000000000000000000000000000000000000000600052602260045260246000fd5b610de680620002266000396000f3fe6080604052600436106100915760003560e01c80638e9cc731116100595780638e9cc731146101a357806395d89b41146101e0578063a9059cbb1461020b578063d0e30db014610248578063e8a3f48d1461025257610091565b806306fdde031461009657806318160ddd146100c15780631a6d0b58146100ec5780633cfba0e31461012957806343c3eaeb14610166575b600080fd5b3480156100a257600080fd5b506100ab61028f565b6040516100b89190610a4e565b60405180910390f35b3480156100cd57600080fd5b506100d661031d565b6040516100e39190610ad0565b60405180910390f35b3480156100f857600080fd5b50610113600480360381019061010e919061090e565b610323565b6040516101209190610ad0565b60405180910390f35b34801561013557600080fd5b50610150600480360381019061014b919061090e565b61033b565b60405161015d9190610ad0565b60405180910390f35b34801561017257600080fd5b5061018d6004803603810190610188919061090e565b610353565b60405161019a9190610ad0565b60405180910390f35b3480156101af57600080fd5b506101ca60048036038101906101c5919061090e565b61036b565b6040516101d79190610ad0565b60405180910390f35b3480156101ec57600080fd5b506101f56103b4565b6040516102029190610a4e565b60405180910390f35b34801561021757600080fd5b50610232600480360381019061022d9190610937565b610442565b60405161023f9190610a33565b60405180910390f35b610250610650565b005b34801561025e57600080fd5b506102796004803603810190610274919061090e565b610748565b6040516102869190610ad0565b60405180910390f35b6000805461029c90610c66565b80601f01602080910402602001604051908101604052809291908181526020018280546102c890610c66565b80156103155780601f106102ea57610100808354040283529160200191610315565b820191906000526020600020905b8154815290600101906020018083116102f857829003601f168201915b505050505081565b60025481565b60056020528060005260406000206000915090505481565b60046020528060005260406000206000915090505481565b60036020528060005260406000206000915090505481565b6000600360008373ffffffffffffffffffffffffffffffffffffffff1673ffffffffffffffffffffffffffffffffffffffff168152602001908152602001600020549050919050565b600180546103c190610c66565b80601f01602080910402602001604051908101604052809291908181526020018280546103ed90610c66565b801561043a5780601f1061040f5761010080835404028352916020019161043a565b820191906000526020600020905b81548152906001019060200180831161041d57829003601f168201915b505050505081565b60008073ffffffffffffffffffffffffffffffffffffffff168373ffffffffffffffffffffffffffffffffffffffff1614156104b3576040517f08c379a00000000000000000000000000000000000000000000000000000000081526004016104aa90610a70565b60405180910390fd5b600360003373ffffffffffffffffffffffffffffffffffffffff1673ffffffffffffffffffffffffffffffffffffffff16815260200190815260200160002054821115610535576040517f08c379a000000000000000000000000000000000000000000000000000000000815260040161052c90610ab0565b60405180910390fd5b81600360003373ffffffffffffffffffffffffffffffffffffffff1673ffffffffffffffffffffffffffffffffffffffff16815260200190815260200160002060008282546105849190610bb7565b9250508190555081600360008573ffffffffffffffffffffffffffffffffffffffff1673ffffffffffffffffffffffffffffffffffffffff16815260200190815260200160002060008282546105da9190610b07565b925050819055508273ffffffffffffffffffffffffffffffffffffffff163373ffffffffffffffffffffffffffffffffffffffff167fddf252ad1be2c89b69c2b068fc378daa952ba7f163c4a11628f55a4df523b3ef8460405161063e9190610ad0565b60405180910390a36001905092915050565b60003411610693576040517f08c379a000000000000000000000000000000000000000000000000000000000815260040161068a90610a90565b60405180910390fd5b600034905080600460003373ffffffffffffffffffffffffffffffffffffffff1673ffffffffffffffffffffffffffffffffffffffff16815260200190815260200160002060008282546106e79190610b07565b925050819055503373ffffffffffffffffffffffffffffffffffffffff167fe1fffcc4923d04b559f4d29a8bfc6cda04eb5b0d3c460751c2402c5c5cc9109c826040516107349190610ad0565b60405180910390a261074533610791565b50565b6000600460008373ffffffffffffffffffffffffffffffffffffffff1673ffffffffffffffffffffffffffffffffffffffff168152602001908152602001600020549050919050565b60004290506000600560008473ffffffffffffffffffffffffffffffffffffffff1673ffffffffffffffffffffffffffffffffffffffff16815260200190815260200160002054826107e39190610bb7565b90506000600b826107f49190610b5d565b905080600360008673ffffffffffffffffffffffffffffffffffffffff1673ffffffffffffffffffffffffffffffffffffffff16815260200190815260200160002060008282546108459190610b07565b9250508190555082600560008673ffffffffffffffffffffffffffffffffffffffff1673ffffffffffffffffffffffffffffffffffffffff168152602001908152602001600020819055508373ffffffffffffffffffffffffffffffffffffffff167f9adbf9e0fc653fed7761c8ec423651993cd7a141472ba88c4b3a91a5f4b80a79826040516108d69190610ad0565b60405180910390a250505050565b6000813590506108f381610d82565b92915050565b60008135905061090881610d99565b92915050565b60006020828403121561092057600080fd5b600061092e848285016108e4565b91505092915050565b6000806040838503121561094a57600080fd5b6000610958858286016108e4565b9250506020610969858286016108f9565b9150509250929050565b61097c81610bfd565b82525050565b600061098d82610aeb565b6109978185610af6565b93506109a7818560208601610c33565b6109b081610cf6565b840191505092915050565b60006109c8601983610af6565b91506109d382610d07565b602082019050919050565b60006109eb601e83610af6565b91506109f682610d30565b602082019050919050565b6000610a0e601483610af6565b9150610a1982610d59565b602082019050919050565b610a2d81610c29565b82525050565b6000602082019050610a486000830184610973565b92915050565b60006020820190508181036000830152610a688184610982565b905092915050565b60006020820190508181036000830152610a89816109bb565b9050919050565b60006020820190508181036000830152610aa9816109de565b9050919050565b60006020820190508181036000830152610ac981610a01565b9050919050565b6000602082019050610ae56000830184610a24565b92915050565b600081519050919050565b600082825260208201905092915050565b6000610b1282610c29565b9150610b1d83610c29565b9250827fffffffffffffffffffffffffffffffffffffffffffffffffffffffffffffffff03821115610b5257610b51610c98565b5b828201905092915050565b6000610b6882610c29565b9150610b7383610c29565b9250817fffffffffffffffffffffffffffffffffffffffffffffffffffffffffffffffff0483118215151615610bac57610bab610c98565b5b828202905092915050565b6000610bc282610c29565b9150610bcd83610c29565b925082821015610be057610bdf610c98565b5b828203905092915050565b6000610bf682610c09565b9050919050565b60008115159050919050565b600073ffffffffffffffffffffffffffffffffffffffff82169050919050565b6000819050919050565b60005b83811015610c51578082015181840152602081019050610c36565b83811115610c60576000848401525b50505050565b60006002820490506001821680610c7e57607f821691505b60208210811415610c9257610c91610cc7565b5b50919050565b7f4e487b7100000000000000000000000000000000000000000000000000000000600052601160045260246000fd5b7f4e487b7100000000000000000000000000000000000000000000000000000000600052602260045260246000fd5b6000601f19601f8301169050919050565b7f696e76616c696420726563697069656e74206164647265737300000000000000600082015250565b7f4d757374206465706f736974206120706f73697469766520616d6f756e740000600082015250565b7f696e73756666696369656e742062616c616e6365000000000000000000000000600082015250565b610d8b81610beb565b8114610d9657600080fd5b50565b610da281610c29565b8114610dad57600080fd5b5056fea26469706673582212201569d9f03c7161dd1560123a8eb7255a6d9b0a6f9eed40ab2720e336a411b04964736f6c63430008010033",
  "linkReferences": {},
  "deployedLinkReferences": {}
}